{
  "_format": "hh3-artifact-1",
  "contractName": "MockMarket",
  "sourceName": "contracts/MockMarket.sol",
  "abi": [
    {
      "inputs": [],
      "stateMutability": "nonpayable",
      "type": "constructor"
    },
    {
      "anonymous": false,
      "inputs": [
        {
          "indexed": true,
          "internalType": "address",
          "name": "user",
          "type": "address"
        },
        {
          "indexed": false,
          "internalType": "uint256",
          "name": "ethIn",
          "type": "uint256"
        },
        {
          "indexed": false,
          "internalType": "uint256",
          "name": "tokensOut",
          "type": "uint256"
        }
      ],
      "name": "Bought",
      "type": "event"
    },
    {
      "anonymous": false,
      "inputs": [
        {
          "indexed": true,
          "internalType": "address",
          "name": "newOwner",
          "type": "address"
        }
      ],
      "name": "OwnerChanged",
      "type": "event"
    },
    {
      "anonymous": false,
      "inputs": [
        {
          "indexed": false,
          "internalType": "uint256",
          "name": "buyPrice",
          "type": "uint256"
        },
        {
          "indexed": false,
          "internalType": "uint256",
          "name": "sellPrice",
          "type": "uint256"
        }
      ],
      "name": "PricesUpdated",
      "type": "event"
    },
    {
      "anonymous": false,
      "inputs": [
        {
          "indexed": true,
          "internalType": "address",
          "name": "user",
          "type": "address"
        },
        {
          "indexed": false,
          "internalType": "uint256",
          "name": "tokensIn",
          "type": "uint256"
        },
        {
          "indexed": false,
          "internalType": "uint256",
          "name": "ethOut",
          "type": "uint256"
        }
      ],
      "name": "Sold",
      "type": "event"
    },
    {
      "inputs": [
        {
          "internalType": "address",
          "name": "token",
          "type": "address"
        }
      ],
      "name": "buy",
      "outputs": [],
      "stateMutability": "payable",
      "type": "function"
    },
    {
      "inputs": [],
      "name": "debug_ethBalance",
      "outputs": [
        {
          "internalType": "uint256",
          "name": "ethWei",
          "type": "uint256"
        }
      ],
      "stateMutability": "view",
      "type": "function"
    },
    {
      "inputs": [
        {
          "internalType": "address",
          "name": "token",
          "type": "address"
        }
      ],
      "name": "debug_tokenBalance",
      "outputs": [
        {
          "internalType": "uint256",
          "name": "tokenUnits",
          "type": "uint256"
        }
      ],
      "stateMutability": "view",
      "type": "function"
    },
    {
      "inputs": [],
      "name": "owner",
      "outputs": [
        {
          "internalType": "address",
          "name": "",
          "type": "address"
        }
      ],
      "stateMutability": "view",
      "type": "function"
    },
    {
      "inputs": [
        {
          "internalType": "address",
          "name": "token",
          "type": "address"
        },
        {
          "internalType": "uint256",
          "name": "ethInWei",
          "type": "uint256"
        }
      ],
      "name": "previewBuy",
      "outputs": [
        {
          "internalType": "uint256",
          "name": "",
          "type": "uint256"
        }
      ],
      "stateMutability": "view",
      "type": "function"
    },
    {
      "inputs": [
        {
          "internalType": "address",
          "name": "token",
          "type": "address"
        },
        {
          "internalType": "uint256",
          "name": "tokensIn",
          "type": "uint256"
        }
      ],
      "name": "previewSell",
      "outputs": [
        {
          "internalType": "uint256",
          "name": "",
          "type": "uint256"
        }
      ],
      "stateMutability": "view",
      "type": "function"
    },
    {
      "inputs": [
        {
          "internalType": "address",
          "name": "token",
          "type": "address"
        },
        {
          "internalType": "uint256",
          "name": "tokensIn",
          "type": "uint256"
        }
      ],
      "name": "sell",
      "outputs": [],
      "stateMutability": "nonpayable",
      "type": "function"
    },
    {
      "inputs": [
        {
          "internalType": "address",
          "name": "token",
          "type": "address"
        },
        {
          "internalType": "uint256",
          "name": "newPrice",
          "type": "uint256"
        }
      ],
      "name": "setTokenPrice",
      "outputs": [],
      "stateMutability": "nonpayable",
      "type": "function"
    },
    {
      "inputs": [
        {
          "internalType": "address",
          "name": "",
          "type": "address"
        }
      ],
      "name": "tokenPrice",
      "outputs": [
        {
          "internalType": "uint256",
          "name": "",
          "type": "uint256"
        }
      ],
      "stateMutability": "view",
      "type": "function"
    },
    {
      "inputs": [
        {
          "internalType": "address",
          "name": "newOwner",
          "type": "address"
        }
      ],
      "name": "transferOwnership",
      "outputs": [],
      "stateMutability": "nonpayable",
      "type": "function"
    },
    {
      "inputs": [
        {
          "internalType": "address payable",
          "name": "to",
          "type": "address"
        },
        {
          "internalType": "uint256",
          "name": "amount",
          "type": "uint256"
        }
      ],
      "name": "withdrawETH",
      "outputs": [],
      "stateMutability": "nonpayable",
      "type": "function"
    },
    {
      "inputs": [
        {
          "internalType": "address",
          "name": "token",
          "type": "address"
        },
        {
          "internalType": "address",
          "name": "to",
          "type": "address"
        },
        {
          "internalType": "uint256",
          "name": "amount",
          "type": "uint256"
        }
      ],
      "name": "withdrawToken",
      "outputs": [],
      "stateMutability": "nonpayable",
      "type": "function"
    },
    {
      "stateMutability": "payable",
      "type": "receive"
    }
  ],
  "bytecode": "0x6080604052348015600e575f5ffd5b505f80546001600160a01b03191633179055610c598061002d5f395ff3fe6080604052600436106100a8575f3560e01c80638da5cb5b116100625780638da5cb5b1461017d578063b5ac48a0146101b3578063e5f0f5cc146101d2578063f088d547146101f1578063f2fde38b14610204578063fbc851e614610223575f5ffd5b806301e33667146100b357806337c33518146100d4578063431f63c9146100f55780634782f779146101145780636c197ff51461013357806384ba3f6914610152575f5ffd5b366100af57005b5f5ffd5b3480156100be575f5ffd5b506100d26100cd366004610afe565b610242565b005b3480156100df575f5ffd5b50475b6040519081526020015b60405180910390f35b348015610100575f5ffd5b506100d261010f366004610b3c565b61032d565b34801561011f575f5ffd5b506100d261012e366004610b3c565b6103ee565b34801561013e575f5ffd5b506100d261014d366004610b3c565b6104ac565b34801561015d575f5ffd5b506100e261016c366004610b66565b60016020525f908152604090205481565b348015610188575f5ffd5b505f5461019b906001600160a01b031681565b6040516001600160a01b0390911681526020016100ec565b3480156101be575f5ffd5b506100e26101cd366004610b3c565b610720565b3480156101dd575f5ffd5b506100e26101ec366004610b3c565b61075f565b6100d26101ff366004610b66565b610789565b34801561020f575f5ffd5b506100d261021e366004610b66565b6109cd565b34801561022e575f5ffd5b506100e261023d366004610b66565b610a7f565b5f546001600160a01b031633146102745760405162461bcd60e51b815260040161026b90610b88565b60405180910390fd5b60405163a9059cbb60e01b81526001600160a01b0383811660048301526024820183905284169063a9059cbb906044016020604051808303815f875af11580156102c0573d5f5f3e3d5ffd5b505050506040513d601f19601f820116820180604052508101906102e49190610bab565b6103285760405162461bcd60e51b81526020600482015260156024820152741dda5d1a191c985dc81d1bdad95b8819985a5b1959605a1b604482015260640161026b565b505050565b5f546001600160a01b031633146103565760405162461bcd60e51b815260040161026b90610b88565b6001600160a01b0382166103985760405162461bcd60e51b81526020600482015260096024820152683130b2103a37b5b2b760b91b604482015260640161026b565b5f81116103d35760405162461bcd60e51b815260206004820152600960248201526862616420707269636560b81b604482015260640161026b565b6001600160a01b039091165f90815260016020526040902055565b5f546001600160a01b031633146104175760405162461bcd60e51b815260040161026b90610b88565b5f826001600160a01b0316826040515f6040518083038185875af1925050503d805f8114610460576040519150601f19603f3d011682016040523d82523d5f602084013e610465565b606091505b50509050806103285760405162461bcd60e51b81526020600482015260136024820152721dda5d1a191c985dc81155120819985a5b1959606a1b604482015260640161026b565b5f81116104e75760405162461bcd60e51b81526020600482015260096024820152686e6f20746f6b656e7360b81b604482015260640161026b565b6040516323b872dd60e01b8152336004820152306024820152604481018290526001600160a01b038316906323b872dd906064016020604051808303815f875af1158015610537573d5f5f3e3d5ffd5b505050506040513d601f19601f8201168201806040525081019061055b9190610bab565b6105a75760405162461bcd60e51b815260206004820152601960248201527f746f6b656e207472616e7366657246726f6d206661696c656400000000000000604482015260640161026b565b6001600160a01b0382165f908152600160205260408120546105d183670de0b6b3a7640000610bca565b6105db9190610bed565b90505f81116106155760405162461bcd60e51b815260040161026b90602080825260049082015263191d5cdd60e21b604082015260600190565b804710156106585760405162461bcd60e51b815260206004820152601060248201526f0d2dce6eaccccd2c6d2cadce8408aa8960831b604482015260640161026b565b6040515f90339083908381818185875af1925050503d805f8114610697576040519150601f19603f3d011682016040523d82523d5f602084013e61069c565b606091505b50509050806106df5760405162461bcd60e51b815260206004820152600f60248201526e115512081cd95b990819985a5b1959608a1b604482015260640161026b565b604080518481526020810184905233917fbac9694ac0daa55169abd117086fe32c89401d9a3b15dd1d34e55e0aa4e47a9d910160405180910390a250505050565b6001600160a01b0382165f90815260016020526040812054670de0b6b3a76400009061074c9084610bca565b6107569190610bed565b90505b92915050565b6001600160a01b0382165f9081526001602052604081205461074c83670de0b6b3a7640000610bca565b5f34116107c15760405162461bcd60e51b81526020600482015260066024820152650dcde408aa8960d31b604482015260640161026b565b6001600160a01b0381165f90815260016020526040812054670de0b6b3a7640000906107ed9034610bca565b6107f79190610bed565b90505f81116108315760405162461bcd60e51b815260040161026b90602080825260049082015263191d5cdd60e21b604082015260600190565b6040516370a0823160e01b815230600482015281906001600160a01b038416906370a0823190602401602060405180830381865afa158015610875573d5f5f3e3d5ffd5b505050506040513d601f19601f820116820180604052508101906108999190610c0c565b10156108dc5760405162461bcd60e51b815260206004820152601260248201527134b739bab33334b1b4b2b73a103a37b5b2b760711b604482015260640161026b565b60405163a9059cbb60e01b8152336004820152602481018290526001600160a01b0383169063a9059cbb906044016020604051808303815f875af1158015610926573d5f5f3e3d5ffd5b505050506040513d601f19601f8201168201806040525081019061094a9190610bab565b61098e5760405162461bcd60e51b81526020600482015260156024820152741d1bdad95b881d1c985b9cd9995c8819985a5b1959605a1b604482015260640161026b565b604080513481526020810183905233917fa9a40dec7a304e5915d11358b968c1e8d365992abf20f82285d1df1b30c8e24c910160405180910390a25050565b5f546001600160a01b031633146109f65760405162461bcd60e51b815260040161026b90610b88565b6001600160a01b038116610a385760405162461bcd60e51b81526020600482015260096024820152683130b21037bbb732b960b91b604482015260640161026b565b5f80546001600160a01b0319166001600160a01b038316908117825560405190917fa2ea9883a321a3e97b8266c2b078bfeec6d50c711ed71f874a90d500ae2eaf3691a250565b6040516370a0823160e01b81523060048201525f906001600160a01b038316906370a0823190602401602060405180830381865afa158015610ac3573d5f5f3e3d5ffd5b505050506040513d601f19601f820116820180604052508101906107599190610c0c565b6001600160a01b0381168114610afb575f5ffd5b50565b5f5f5f60608486031215610b10575f5ffd5b8335610b1b81610ae7565b92506020840135610b2b81610ae7565b929592945050506040919091013590565b5f5f60408385031215610b4d575f5ffd5b8235610b5881610ae7565b946020939093013593505050565b5f60208284031215610b76575f5ffd5b8135610b8181610ae7565b9392505050565b6020808252600990820152683737ba1037bbb732b960b91b604082015260600190565b5f60208284031215610bbb575f5ffd5b81518015158114610b81575f5ffd5b808202811582820484141761075957634e487b7160e01b5f52601160045260245ffd5b5f82610c0757634e487b7160e01b5f52601260045260245ffd5b500490565b5f60208284031215610c1c575f5ffd5b505191905056fea2646970667358221220c74391082dbc09185adb1913008a56339d3d89b7bddbe368cefa584247dfe48264736f6c634300081c0033",
  "linkReferences": {},
  "deployedLinkReferences": {},
  "immutableReferences": {},
  "inputSourceName": "project/contracts/MockMarket.sol",
  "buildInfoId": "solc-0_8_28-ae64c41f9dd6909afdcd814fa523d54fff921acb"
}